:100000000C94C60B0C94F89E0C94299F0C945A9F48
:100010000C948B9F0C94BC9F0C94ED9F0C941EA091
:100020000C944FA00C94C8A10C94F0A10C9418A2AD
:100030000C94F0950C94BC960C94EF960C9422972B
:100040000C9421980C9455970C9488970C94BB971A
:100050000C94EE970C9423960C9456960C948996D7
:100060000C94F70B0C94FA190C94351A0C94F70BAA
:100070000C94F70B0C94F70B0C94F70B0C94209941
:100080000C9454980C9487980C94BA980C94ED980E
:100090000C948B1A0C94C61A0C94F70B0C94F70B57
:1000A0000C94F70B0C941F9A0C9453990C9486990A
:1000B0000C94B9990C94EC990C941E9B0C94529A44
:1000C0000C94859A0C94B89A0C94EB9A0C941C1B83
:1000D0000C94571B0C94F70B0C94AD1B0C94E81B61
:1000E0000C94F70B160C1F0C280C310C3A0C540C0A
:1000F000430C540C4C0C5F0E690E730E7D0E870E74
:10010000910E9B0EA50E060F0C0F120F180F1E0F4F
:10011000240F2A0F300F360F3C0F420F480F5F0F8E
:100120004E0F540F5A0FFC10021108110E1114112A
:100130001A11201126112C11321138113E115511AE
:1001400044114A115011EB11F111F711FD11031275
:1001500009120F1215121B12211227122D1244120E
:10016000331239123F12D821DE21E421EA21F02195
:10017000F621FC21022208220E2214221A22312208
:10018000202226222C22712277227D22832289227C
:100190008F2295229B22A122A722AD22B322CA221E
:1001A000B922BF22C5226D23732379237F238523A0
:1001B0008B23912397239D23A323A923AF23C62316
:1001C000B523BB23C1230B24112417241D2423246E
:1001D00029242F2435243B24412447244D246424FE
:1001E000532459245F24612B672B6D2B732B792BA0
:1001F0007F2B852B8B2B912B972B9D2BA32BBA2BF6
:10020000A92BAF2BB52B09310F3115311B31213102
:1002100027312D31333139313F3145314B31623165
:10022000513157315D31403246324C3252325832C0
:100230005E3264326A32703276327C328232993285
:1002400088328E329432E332E932EF32F532FB32C9
:10025000013307330D33133319331F3325333C3345
:100260002B333133373356365C36623668366E366A
:1002700074367A36803686368C3692369836AF3675
:100280009E36A436AA3675377B37813787378D3748
:10029000933799379F37A537AB37B137B737CE3755
:1002A000BD37C337C937593A5F3A653A6B3A713A45
:1002B000773A7D3A833A893A8F3A953A9B3AB23AFD
:1002C000A13AA73AAD3ABE41C441CA41D041D64154
:1002D000DC41E241E841EE41F441FA41004217427B
:1002E00006420C421242765A7C5A825A885A8E5AD8
:1002F000945A9A5AA05AA65AAC5AB25AB85ACF5AD5
:10030000BE5AC45ACA5A555C5B5C615C675C6D5CE2
:10031000735C795C7F5C855C8B5C915C975CAE5CAC
:100320009D5CA35CA95C815D875D8D5D935D995D3E
:100330009F5DA55DAB5DB15DB75DBD5DC35DDA5D24
:10034000C95DCF5DD55D558C5B8C618C678C6D8C88
:10035000738C798C7F8C858C8B8C918C978CAE8CEC
:100360009D8CA38CA98CEC8CF28CF88CFE8C048D6B
:100370000A8D108D168D1C8D228D288D2E8D458D0C
:10038000348D3A8D408D7F8D858D8B8D918D978DA0
:100390009D8DA38DA98DAF8DB58DBB8DC18DD88D54
:1003A000C78DCD8DD38DA28FA88FAE8FB48FBA8F0E
:1003B000C08FC68FCC8FD28FD88FDE8FE48FFB8F0C
:1003C000EA8FF08FF68F04910A91109116911C918B
:1003D000229128912E9134913A91409146915D91CC
:1003E0004C9152915891DB9BB29BB49BB69BB89BAE
:1003F000BA9BBC9BDD9BCD9BD99BCF9BD99BD19BB3
:10040000D39BD59BD79B8FA294A299A29EA2A3A275
:10041000A8A2ADA2B2A2B7A2BCA2C1A2C6A2D9A2F2
:10042000CBA2D0A2D5A270A376A37DA383A38AA3D7
:1004300090A397A39DA3A4A3ABA3B1A3B8A3D3A355
:10044000BFA3C5A3CCA34E414E494E495459494E72
:1004500046CDCCCC3D0AD7233C17B7D13877CC2B2F
:10046000329595E6241FB14F0A000020410000C8D4
:100470004200401C4620BCBE4CCA1B0E5AAEC59D55
:10048000746364696E6F70737578585B0000000860
:100490000902070A0B0C0605030401000000000016
:1004A000000000000000000000000000000000004C
:1004B000000000000000000000100F0E000000000F
:1004C000000000000000000000000000000000002C
:1004D00000000001021020200808102040102040D9
:1004E00080020102010804020101020408102040F8
:1004F0008080402010080402018004020180402016
:10050000100804020108040201010204081020403E
:100510008001020408102040800505050507050834
:10052000080808020202020A0A0808040404040176
:100530000101010101010103030303030303030498
:100540000707070C0C0C0C0C0C0C0C020202020628
:10055000060606060606060B0B0B0B0B0B0B0B0019
:10056000002200250028002B002E0031003400025C
:10057000010000050108010B0100002100240027F3
:10058000002A002D003000330001010000040107A3
:10059000010A012F3E00656570726F6D003C0032EC
:1005A00020003120003E00656570726F6D003C00D8
:1005B0000000080902070A0B0C06050304010000ED
:1005C000000000000000000000000000000000002B
:1005D000000000000000000000000000100F0E00EE
:1005E000000000000000000000000000000000000B
:1005F0000000000000000102102020080810204028
:1006000010204080020102010804020101020408D6
:100610001020408080402010080402018004020164
:1006200080402010080402010804020101020408AD
:1006300010204080010204081020408005050505B7
:10064000070508080808020202020A0A080804044A
:100650000404010101010101010103030303030378
:100660000303040707070C0C0C0C0C0C0C0C020207
:10067000020206060606060606060B0B0B0B0B0B04
:100680000B0B00002200250028002B002E0031005B
:10069000340002010000050108010B0100002100E7
:1006A000240027002A002D00300033000101000043
:1006B000040107010A010000080902070A0B0C06E1
:1006C000050304010000000000000000000000001D
:1006D000000000000000000000000000000000001A
:1006E0000000100F0E0000000000000000000000DD
:1006F00000000000000000000000000001021020C7
:100700002008081020401020408002010201080447
:1007100002010102040810204080804020100804DB
:100720000201800402018040201008040201080434
:100730000201010204081020408001020408102078
:1007400040800505050507050808080802020202A1
:100750000A0A08080404040401010101010101015D
:100760000303030303030303040707070C0C0C0C28
:100770000C0C0C0C02020202060606060606060611
:100780000B0B0B0B0B0B0B0B0000220025002800A2
:100790002B002E0031003400020100000501080189
:1007A0000B0100002100240027002A002D0030004A
:1007B000330001010000040107010A0100000809DB
:1007C00002070A0B0C0605030401000000000000EC
:1007D0000000000000000000000000000000000019
:1007E0000000000000000000100F0E0000000000DC
:1007F00000000000000000000000000000000000F9
:100800000000010210202008081020401020408025
:1008100002010201080402010102040810204080C4
:100820008040201008040201800402018040201052
:10083000080402010804020101020408102040809B
:100840000102040810204080050505050705080879
:100850000808020202020A0A08080404040401014A
:10086000010101010101030303030303030304075F
:1008700007070C0C0C0C0C0C0C0C020202020606F6
:100880000606060606060B0B0B0B0B0B0B0B0000EC
:100890002200250028002B002E0031003400020128
:1008A0000000050108010B010000210024002700C1
:1008B0002A002D003000330001010000040107016F
:1008C0000A012F3E006469676974616C70696E008B
:1008D0003C003E006469676974616C70696E003C3D
:1008E000002F3E00616E616C6F6770696E003C00A6
:1008F0003E00616E616C6F6770696E003C002F3E58
:1009000000756C747261736F6E6963003C00322015
:10091000003120003E00756C747261736F6E696304
:10092000003C002F3E0062617474657279003C00E7
:100930003120003E0062617474657279003C002FC2
:100940003E006D6F746F726661756C74003C00538D
:1009500074617274757020636F6E66696775726119
:1009600074696F6E206661756C74004D4F53464517
:1009700054206661696C75726500536570657820F6
:1009800065786369746174696F6E206661756C74F3
:1009900000456D657267656E63792073746F7000D2
:1009A00053686F7274206369726375697400556E61
:1009B000646572766F6C74616765004F76657276F8
:1009C0006F6C74616765004F76657268656174006D
:1009D0003E006D6F746F726661756C74003C0052FE
:1009E0006573656E643A20002F3E00556E6B6E6F26
:1009F000776E204D20636F646520003C002F3E0021
:100A00004D393939003C002F3E00616E616C6F67D3
:100A100070696E003C003E00616E616C6F677069CA
:100A20006E003C002F3E004D373939003C002F3E10
:100A3000004D373939003C002F3E004D3739390021
:100A40003C002F3E00636F6E74726F6C6C65727346
:100A50007461747573003C004D6F746F722043684D
:100A6000616E6E656C3A0050574D204368616E6E42
:100A7000656C3A003E00636F6E74726F6C6C6572E9
:100A8000737461747573003C002F3E006173736969
:100A9000676E656470696E73003C003E006173733D
:100AA00069676E656470696E73003C002F3E00706C
:100AB000776D636F6E74726F6C73657474696E6753
:100AC000003C00204475726174696F6E3A00204DDD
:100AD000696E204C6576656C3A0050574D2063680E
:100AE000616E6E656C3A003E0070776D636F6E7478
:100AF000726F6C73657474696E67003C002F3E0002
:100B00006D6F746F72636F6E74726F6C73657474F3
:100B1000696E67003C004E6F6E652E00205368754D
:100B200074646F776E20636D3A0020466163696E6E
:100B3000673A0050696E3A00556C747261736F6E5B
:100B400069632070696E733A004E6F6E652E0020E7
:100B50004475726174696F6E3A0020436F756E74EC
:100B60003A0020456E636F6465722050696E3A00EA
:100B70002044656661756C742E204469723A0020C9
:100B8000437572722E204469723A00205370656575
:100B9000643A00204D696E20506F7765723A004DBF
:100BA0006F746F72206368616E6E656C3A003E0010
:100BB0006D6F746F72636F6E74726F6C7365747443
:100BC000696E67003C002F3E0070776D70696E7330
:100BD000657474696E67003C00204552524F522084
:100BE0002D20554E4B4E4F574E00204F55545055CB
:100BF000540020494E5055545F50554C4C555000B0
:100C000020494E505554002054696D657220636828
:100C1000616E6E656C3A0050696E3A003E00707706
:100C20006D70696E73657474696E67003C002F3E69
:100C300000756C747261736F6E696370696E736551
:100C40007474696E67003C0050696E3A003E00752E
:100C50006C747261736F6E696370696E73657474BE
:100C6000696E67003C002F3E00616E616C6F6770BB
:100C7000696E73657474696E67003C00204552525A
:100C80004F52202D20554E4B4E4F574E00204F5562
:100C9000545055540020494E5055545F50554C4CBB
:100CA00055500020494E505554003E00616E616C15
:100CB0006F6770696E73657474696E67003C002FAE
:100CC0003E006469676974616C70696E7365747401
:100CD000696E67003C00204552524F52202D20552E
:100CE0004E4B4E4F574E00204F55545055540020F8
:100CF000494E5055545F50554C4C55500020494E6C
:100D0000505554003E006469676974616C70696E87
:100D100073657474696E67003C002F3E00737461E4
:100D2000747573003C002046726565204D656D6FDB
:100D300072793A20002847726F66662C20646566D7
:100D400061756C7420636F6E6669672900207C2072
:100D5000417574686F723A20004D617920323720F6
:100D6000323032322031333A32393A323000204C8C
:100D700061737420557064617465643A2000312E8B
:100D8000332E3000536F667477617265205265733D
:100D90006574005761746368646F6720526573659A
:100DA000740042726F776E206F75742052657365A0
:100DB000740045787465726E616C20526573657459
:100DC00000506F7765725570003E007374617475E2
:100DD00073003C002F3E004D353032003C002F3E6A
:100DE000004D353031003C002F3E004D3530300095
:100DF0003C002F3E004D343435003C002F3E004D6A
:100E0000333036003C002F3E004D333036003C007E
:100E10002F3E004D333034003C002F3E004D333028
:100E200034003C002F3E004D333032003C002F3E5A
:100E3000004D333031003C002F3E00756C74726100
:100E4000736F6E6963003C003220003120003E0069
:100E5000756C747261736F6E6963003C002F3E00A5
:100E60004649524D574152455F4E414D453A4D61BD
:100E7000726C696E7370696B6520526F626F436F3D
:100E80007265003C004649524D574152455F5552EC
:100E90004C3A687474703A2F2F7777772E6E656F9F
:100EA000636F726574656368732E636F6D0D0A50AE
:100EB000524F544F434F4C5F56455253494F4E3A51
:100EC000312E310D0A4D414348494E455F5459502A
:100ED000453A526F626F436F72650D0A555549442A
:100EE0003A30386438356563312D363531612D340B
:100EF0006132662D613161372D346166623135347E
:100F00006263633831003E004649524D57415245B5
:100F10005F4E414D453A4D61726C696E7370696BFD
:100F20006520526F626F436F7265003C002F3E0078
:100F30004D3831003C002F3E004D3830003C002F32
:100F40003E004D3437003C002F3E00616E616C6FF7
:100F50006770696E003C003220003120003E006165
:100F60006E616C6F6770696E003C002F3E004D34FF
:100F700035003C002F3E004D3435003C002F3E0034
:100F80006469676974616C70696E003C00322000AE
:100F90003120003E006469676974616C70696E009D
:100FA0003C002F3E004D3432003C002F3E004D34BB
:100FB00032003C002F3E004D3431003C002F3E00FB
:100FC0004D3431003C002F3E004D3430003C002FAA
:100FD0003E004D3339003C002F3E004D3338003C7D
:100FE000002F3E004D3337003C002F3E004D33367E
:100FF000003C002F3E004D3335003C002F3E004D9D
:101000003333003C002F3E004D35003C002F3E00A6
:101010004D35003C002F3E004D3132003C002F3E4C
:10102000004D3132003C002F3E004D3131003C007C
:101030002F3E004D3131003C002F3E004241442004
:10104000434F4E54524F4C4C455220545950453A00
:10105000003C002F3E004D3130003C002F3E004D43
:101060003130003C002F3E004D3130003C002F3E1F
:10107000004D3130003C002F3E004D3130003C002F
:101080002F3E004D39003C002F3E004D38003C0003
:101090002F3E004D38003C002F3E004D37003C00F5
:1010A0002F3E004D37003C002F3E004D36003C00E7
:1010B0002F3E004D36003C002F3E004D35003C00D9
:1010C0002F3E004D34003C002F3E004D33003C00CD
:1010D0002F3E004D32003C002F3E004D31003C00C1
:1010E0002F3E004D30003C002F3E00556E6B6E6F62
:1010F000776E204720636F646520003C002F3E0020
:1011000047323033003C002F3E0047323032003C43
:10111000002F3E0047323031003C002F3E00473266
:101120003030003C002F3E0047313030003C002F73
:101130003E00473939003C002F3E004735003C0057
:101140002F3E004261642050574D204472697665FD
:101150007220636F6D6D616E6420003C002F3E0055
:101160004735003C002F3E00426164204D6F746F94
:101170007220636F6D6D616E6420003C002F3E0035
:101180004734003C002F3E004E656974686572204C
:1011900047206E6F72204D20636F646520666F7507
:1011A0006E6420003C002F3E00436F6E74726F6CC3
:1011B0006C65722073746F7070656420647565204F
:1011C000746F206572726F7273003C002F3E004E88
:1011D0006F204C696E65204E756D6265722077696F
:1011E000746820636865636B73756D2C204C617344
:1011F00074204C696E653A20003C002F3E004E6F13
:1012000020436865636B73756D2077697468206C23
:10121000696E65206E756D6265722C204C61737409
:10122000204C696E653A20003C002F3E00636865E3
:10123000636B73756D206D69736D617463682C20C9
:101240004C617374204C696E653A20003C002F3E5F
:10125000004C696E65204E756D6265722069732061
:101260006E6F74204C617374204C696E65204E75EE
:101270006D6265722B312C204C617374204C696E49
:10128000653A20003C004D31313000000008090271
:10129000070A0B0C06050304010000000000000013
:1012A000000000000000000000000000000000003E
:1012B00000000000000000100F0E00000000000001
:1012C000000000000000000000000000000000001E
:1012D0000001021020200808102040102040800249
:1012E000010201080402010102040810204080806C
:1012F00040201008040201800402018040201008F0
:1013000004020108040201010204081020408001C7
:101310000204081020408005050505070508080897
:1013200008020202020A0A08080404040401010176
:10133000010101010103030303030303030407077E
:10134000070C0C0C0C0C0C0C0C020202020606061C
:1013500006060606060B0B0B0B0B0B0B0B000020F7
:10136000002300260029002C002F0032000001007D
:101370000003010601090100002200250028002BBE
:10138000002E003100340002010000050108010BAD
:101390000100002100240027002A002D0030003326
:1013A0000001010000040107010A01000008090210
:1013B000070A0B0C060503040100000000000000F2
:1013C000000000000000000000000000000000001D
:1013D00000000000000000100F0E000000000000E0
:1013E00000000000000000000000000000000000FD
:1013F0000001021020200808102040102040800228
:10140000010201080402010102040810204080804A
:1014100040201008040201800402018040201008CE
:1014200004020108040201010204081020408001A6
:101430000204081020408005050505070508080876
:1014400008020202020A0A08080404040401010155
:10145000010101010103030303030303030407075D
:10146000070C0C0C0C0C0C0C0C02020202060606FB
:1014700006060606060B0B0B0B0B0B0B0B000020D6
:10148000002300260029002C002F0032000001005C
:101490000003010601090100002200250028002B9D
:1014A000002E003100340002010000050108010B8C
:1014B0000100002100240027002A002D0030003305
:1014C0000001010000040107010A010000080902EF
:1014D000070A0B0C060503040100000000000000D1
:1014E00000000000000000000000000000000000FC
:1014F00000000000000000100F0E000000000000BF
:1015000000000000000000000000000000000000DB
:101510000001021020200808102040102040800206
:101520000102010804020101020408102040808029
:1015300040201008040201800402018040201008AD
:101540000402010804020101020408102040800185
:101550000204081020408005050505070508080855
:1015600008020202020A0A08080404040401010134
:10157000010101010103030303030303030407073C
:10158000070C0C0C0C0C0C0C0C02020202060606DA
:1015900006060606060B0B0B0B0B0B0B0B000022B3
:1015A00000250028002B002E00310034000201002D
:1015B00000050108010B0100002100240027002A7A
:1015C000002D003000330001010000040107010A72
:1015D0000101021020200808102040102040800245
:1015E0000102010804020101020408102040808069
:1015F00040201008040201800402018040201008ED
:1016000004020108040201010204081020408001C4
:101610000204081020408005050505070508080894
:1016200008020202020A0A08080404040401010173
:10163000010101010103030303030303030407077B
:10164000070C0C0C0C0C0C0C0C0202020206060619
:1016500006060606060B0B0B0B0B0B0B0B000020F4
:10166000002300260029002C002F0032000001007A
:10167000000301060109010000080902070A0B0C1A
:101680000605030401000000000000000000000047
:10169000000000000000000000000000000000004A
:1016A000000000100F0E000000000000000000000D
:1016B0000000000000000000000000000001021017
:1016C000202008081020401020408002010201085C
:1016D000040201010204081020408080402010080C
:1016E0000402018004020180402010080402010865
:1016F00004020101020408102040800102040810C5
:1017000020408005050505070508080808020202B3
:10171000020A0A080804040404010101010101018C
:10172000010303030303030303040707070C0C0C63
:101730000C0C0C0C0C02020202060606060606063B
:10174000060B0B0B0B0B0B0B0B00002200250028CC
:10175000002B002E003100340002010000050108BA
:10176000010B0100002100240027002A002D003079
:1017700000330001010000040107010A01005E1AA4
:10178000EF1A801B111CE742DF9EEE4211241FBEA0
:10179000CFEFD1E2DEBFCDBF00E00CBF1AE0A0E08A
:1017A000B2E0EAE7F5E601E00BBF02C007900D9258
:1017B000A830B107D9F728E1A8E0BAE001C01D922E
:1017C000AC31B207E1F71BE0C5ECDBE000E006C09E
:1017D00021970109802FFE010E942FA7CF3BD1073F
:1017E00080E00807A9F70E943E1C0C94ABB20C9451
:1017F0000000FC01E75AFF4F83599F4F119211924D
:10180000E817F907D9F7089508950F931F93FC017E
:10181000038110E00930110508F046C0DC01F80131
:101820008827EE58FF4F8F4F0C942FA7ED91FC9116
:1018300011970084F185E02DCD01199535C0ED910A
:10184000FC9111970284F385E02DCD0119952CC0F0
:10185000ED91FC9111970484F585E02DCD0119954A
:1018600023C0ED91FC9111970684F785E02DCD0101
:1018700019951AC0ED91FC9111970088F189E02D1E
:10188000CD01199511C0ED91FC9111970288F38952
:10189000E02DCD01199508C0ED91FC9111970488B8
:1018A000F589E02DCD0119951F910F910895CF93E2
:1018B000DF93EC0120E030E0A9016C897D898E89FD
:1018C0009F890E940DA6181624F4E8A9F9A9199574
:1018D00003C0EAA9FBA91995DF91CF9108954F9212
:1018E0005F926F927F928F929F92AF92BF92CF92B0
:1018F000DF92EF92FF921F93CF93DF93EC01E88189
:10190000F9810480F581E02D6A81611162E0CE01E8
:101910001995E881F9810480F581E02D8A81811192
:1019200002C061E001C063E0CE0119956CA57DA500
:1019300080E090E00E945BA56B017C012BEA3AEA13
:101940004AEA50E40E9411A64B015C0120E030E01D
:1019500040E85FE30E94BEA488230CF470C020E03E
:1019600030E040E850E4C701B6010E9411A62B0107
:101970003C0120E03FEF4FE757E40E940DA6181608
:101980000CF045C020E030E04AE754E4C701B6015E
:101990000E94C2A44B015C0120E030E04AE755E41C
:1019A0000E9411A66B017C0120E030E040E85FE37B
:1019B0000E94BEA488232CF120E03FEF4FE757E4BC
:1019C000C701B6010E940DA61816B4F420E030E05D
:1019D00040E251E4C501B4010E9411A60E942FA566
:1019E0006115710569F120E931E0C9010197F1F74D
:1019F00061507109D1F724C0C701B6010E942FA51B
:101A000002C061E070E0CB010197F1F719C020E05E
:101A100030E04FE753E4C501B4010E940DA618164B
:101A200044F4C301B2010E942FA5CB010197F1F745
:101A30000AC0C501B4010E942FA5162F01C011E0F4
:101A4000612F6A95F1F7E881F9810480F581E02D35
:101A50006A81611162E0CE011995DF91CF911F91EA
:101A6000FF90EF90DF90CF90BF90AF909F908F90BE
:101A70007F906F905F904F90089543705527662731
:101A800077274130510561057105D1F02CF4452BC4
:101A9000462B472B61F008954230510561057105D1
:101AA000C1F04330510561057105E1F00895DC0195
:101AB000ED91FC910480F581E02D62E01995089587
:101AC000DC01ED91FC910480F581E02D63E0199536
:101AD0000895DC01ED91FC910480F581E02D61E039
:101AE00019950895DC01ED91FC910480F581E02DBC
:101AF00060E019950895CF93DF93EC01CB01BA0113
:101B000023E030E040E050E00E9413A7613071050F
:101B10008105910591F06230710581059105B1F063
:101B2000672B682B692BD1F4E881F9810480F5815A
:101B3000E02D64E0CE01199511C0E881F98104809F
:101B4000F581E02D61E0CE01199508C0E881F981A9
:101B50000480F581E02D62E0CE011995DF91CF91EF
:101B60000895437055276627772741305105610551
:101B70007105D1F02CF4452B462B472B61F00895CD
:101B80004230510561057105C1F0433051056105D1
:101B90007105E1F00895DC01ED91FC910480F5817F
:101BA000E02D65E019950895DC01ED91FC9104802C
:101BB000F581E02D66E019950895DC01ED91FC9129
:101BC0000480F581E02D6AE019950895DC01ED911E
:101BD000FC910480F581E02D69E019950895CF937B
:101BE000DF93EC01CB01BA0126E030E040E050E0A9
:101BF0000E9413A7623071058105910551F15CF4D3
:101C0000611571058105910591F0613071058105BE
:101C10009105B1F041C0643071058105910559F11C
:101C20000CF1653071058105910571F135C0E881D0
:101C3000F9810480F581E02D64E0CE0119952CC076
:101C4000E881F9810480F581E02D65E0CE011995E8
:101C500023C0E881F9810480F581E02D61E0CE01A7
:101C600019951AC0E881F9810480F581E02D63E0BF
:101C7000CE01199511C0E881F9810480F581E02D2C
:101C800062E0CE01199508C0E881F9810480F581F0
:101C9000E02D66E0CE011995DF91CF910895477050
:101CA0005527662777274830510508F057C0DC01D3
:101CB000FA018827E558FF4F8F4F0C942FA7ED911D
:101CC000FC9111970480F581E02D61E0CD0119951B
:101CD0000895ED91FC9111970480F581E02D65E068
:101CE000CD0119950895ED91FC9111970480F5812E
:101CF000E02D64E0CD0119950895ED91FC911197C7
:101D00000480F581E02D66E0CD0119950895ED91EF
:101D1000FC9111970480F581E02D62E0CD011995C9
:101D20000895ED91FC9111970480F581E02D6AE012
:101D3000CD0119950895ED91FC9111970480F581DD
:101D4000E02D68E0CD0119950895ED91FC91119772
:101D50000480F581E02D69E0CD01199508957F9209
:101D60008F929F92AF92BF92CF92DF92EF92FF92AB
:101D70000F931F93CF93DF93DC0113962C912430A4
:101D800009F4C5C0283009F4C6C0233009F4C7C01F
:101D9000263009F0C9C00F2EF3E09F2EF02DC7C0EA
:101DA000C6010C2E02C0959587950A94E2F780FF34
:101DB00004C0F801A084A82403C0D8011896AC90F0
:101DC000D701ED91FD917D01808190E0FC01E35709
:101DD000FB4F2491FC01ED52FB4FB490FC01E75EF8
:101DE000FA4F7490772009F48BC0222309F467C05E
:101DF000822F90E0FC013197E031F10508F05FC0DF
:101E00008827ED57FF4F8F4F0C942FA760E084E792
:101E100097E10E94A69E53C0682D84E797E10E9437
:101E2000A69E4DC060E085E497E10E94A69E47C053
:101E3000682D85E497E10E94A69E41C060E086E19E
:101E400097E10E94A69E3BC0682D86E197E10E9423
:101E5000A69E35C060E087EE96E10E94A69E2FC048
:101E6000682D87EE96E10E94A69E29C062E087EE6B
:101E700096E10E94A69E23C060E088EB96E10E9456
:101E8000A69E1DC0682D88EB96E10E94A69E17C0F5
:101E900062E088EB96E10E94A69E11C060E089E8AE
:101EA00096E10E94A69E0BC0682D89E896E10E94EB
:101EB000A69E05C062E089E896E10E94A69EE72DF5
:101EC000F0E0EE0FFF1FE15AFA4FA591B4918FB7E2
:101ED000F894A1100DC02D913C911197EB2DF0E0DD
:101EE000E095F095E223F3231196FC93EE9307C05F
:101EF0002D913C9111972B2911963C932E938FBFD6
:101F000021960F5F1F4FC91508F44ACF1CC0689473
:101F1000992492F80CC06894992492F808C00F2E66
:101F2000F3E09F2EF02D03C06894992491F87C0172
:101F3000E4E4EE0EF11C8C01C0E0D0E0C62ED12C02
:101F4000882483942DCFDF91CF911F910F91FF9023
:101F5000EF90DF90CF90BF90AF909F908F907F9049
:101F600008951F93CF93DF93DC0113968C91139701
:101F7000882309F4BBC1FD01EC5BFF4F0190F081A8
:101F8000E02D81E08183208130E0F901ED52FB4FAB
:101F90008491F901E75EFA4F24912223B9F030E0F1
:101FA000220F331FF901E758FA4FC591D491F90177
:101FB000E15AFA4F259134914FB7F894288139812D
:101FC000B901682BCB01998388834FBFFD01EA5B80
:101FD000FF4F0190F081E02D81E08183208130E08E
:101FE000F901ED52FB4F8491F901E75EFA4F24911C
:101FF0002223B9F030E0220F331FF901E758FA4FDE
:10200000C591D491F901E15AFA4F259134914FB716
:10201000F89428813981B901682BCB019983888391
:102020004FBF13968C911397843019F0883009F0C4
:1020300054C0FD01E85BFF4F0190F081E02D81E08D
:102040008183808190E0FC01ED52FB4F2491FC01E3
:10205000E75EFA4F84918823A9F090E0880F991FDA
:10206000FC01E758FA4FC591D491FC01E15AFA4FAF
:10207000859194913FB7F89488819981822B9983B7
:1020800088833FBFFD01E65BFF4F0190F081E02DAB
:1020900081E08183808190E0FC01ED52FB4F24912F
:1020A000FC01E75EFA4F8491882309F443C090E075
:1020B000880F991FFC01E758FA4FC591D491FC0194
:1020C000E15AFA4F859194913FB7F89488819981AC
:1020D000822B998388833FBF2DC0833011F08630D7
:1020E00049F5FD01E85BFF4F0190F081E02D81E0B3
:1020F0008183808190E0FC01ED52FB4F2491FC0133
:10210000E75EFA4F84918823A9F090E0880F991F29
:10211000FC01E758FA4FC591D491FC01E15AFA4FFE
:10212000859194913FB7F89488819981822B998306
:1021300088833FBF9F96EC919F97EF3F09F4D6C0ED
:10214000F0E0B296EE0FFF1FEA0FFB1F0190F08147
:10215000E02D81E08183808190E0FC01ED52FB4F16
:102160002491FC01E75EFA4F84918823A9F090E066
:10217000880F991FFC01E758FA4FC591D491FC01D3
:10218000E15AFA4F859194913FB7F89488819981EB
:10219000822B998388833FBF9F96EC919F97F0E0B5
:1021A000B296EE0FFF1FEA0FFB1F0190F081E02DAA
:1021B000808190E0FC01E357FB4F2491FC01ED523C
:1021C000FB4FD491FC01E75EFA4FC491CC2309F494
:1021D0008DC09E961C91222309F467C0822F90E047
:1021E000FC013197E031F10508F05FC08827ED561A
:1021F000FF4F8F4F0C942FA760E084E797E10E9478
:10220000A69E53C061E084E797E10E94A69E4DC060
:1022100060E085E497E10E94A69E47C061E085E406
:1022200097E10E94A69E41C060E086E197E10E948E
:10223000A69E3BC061E086E197E10E94A69E35C064
:1022400060E087EE96E10E94A69E2FC061E087EED7
:1022500096E10E94A69E29C062E087EE96E10E9468
:10226000A69E23C060E088EB96E10E94A69E1DC05A
:1022700061E088EB96E10E94A69E17C062E088EBC1
:1022800096E10E94A69E11C060E089E896E10E9456
:10229000A69E0BC061E089E896E10E94A69E05C05B
:1022A00062E089E896E10E94A69EEC2FF0E0EE0F36
:1022B000FF1FE15AFA4FA591B4918FB7F8941123FB
:1022C00069F02D913C911197ED2FF0E0E095F0959C
:1022D000E223F3231196FC93EE9307C02D913C91DA
:1022E00011972D2B11963C932E938FBFDF91CF9199
:1022F0001F9108950F931F93CF93DF93FC012381C8
:10230000222309F4E1C0EC010190F081E02D04806A
:10231000F581E02D60E01995EFA5EF3F09F4D4C0F9
:10232000F0E0B296EE0FFF1FEC0FFD1F0190F08161
:10233000E02D81E08183808190E0FC01ED52FB4F34
:102340002491FC01E75EFA4F84918823B9F090E074
:10235000880F991FFC01E758FA4FA591B491FC0131
:10236000E15AFA4F859194913FB7F8948D919C91E1
:102370001197822B11969C938E933FBFEFA5F0E0AF
:10238000B296EE0FFF1FEC0FFD1F0190F081E02DC4
:10239000808190E0FC01E357FB4F2491FC01ED525A
:1023A000FB4F0491FC01E75EFA4F1491112309F4ED
:1023B0008BC0CEA5222309F467C0822F90E0FC01D8
:1023C0003197E031F10508F05FC08827ED55FF4FE8
:1023D0008F4F0C942FA760E084E797E10E94A69EA0
:1023E00053C061E084E797E10E94A69E4DC060E083
:1023F00085E497E10E94A69E47C061E085E497E1ED
:102400000E94A69E41C060E086E197E10E94A69EE0
:102410003BC061E086E197E10E94A69E35C060E086
:1024200087EE96E10E94A69E2FC061E087EE96E1BE
:102430000E94A69E29C062E087EE96E10E94A69EB9
:1024400023C060E088EB96E10E94A69E1DC061E07B
:1024500088EB96E10E94A69E17C062E088EB96E1A9
:102460000E94A69E11C060E089E896E10E94A69EA7
:102470000BC061E089E896E10E94A69E05C062E07B
:1024800089E896E10E94A69EE12FF0E0EE0FFF1F83
:10249000E15AFA4FA591B4918FB7F894C1110CC0CD
:1024A0002D913C91119710E0009510950223132374
:1024B00011961C930E9307C02D913C911197202BE0
:1024C00011963C932E938FBFDF91CF911F910F9167
:1024D00008954F925F926F927F928F929F92AF92E8
:1024E000BF92CF92DF92EF92FF921F93CF93DF9331
:1024F000EC016CA17DA18EA19FA1611571058105E3
:10250000910509F4B0C00E945BA56B017C012BEA28
:102510003AEA4AEA50E40E9411A64B015C0120E02D
:1025200030E040E85FE30E94BEA488230CF470C052
:1025300020E030E040E850E4C701B6010E9411A657
:102540002B013C0120E03FEF4FE757E40E940DA62E
:1025500018160CF045C020E030E04AE754E4C7010B
:10256000B6010E94C2A44B015C0120E030E04AE7C2
:1025700055E40E9411A66B017C0120E030E040E8A8
:102580005FE30E94BEA488232CF120E03FEF4FE7D9
:1025900057E4C701B6010E940DA61816B4F420E056
:1025A00030E040E251E4C501B4010E9411A60E944E
:1025B0002FA56115710569F120E931E0C901019785
:1025C000F1F761507109D1F724C0C701B6010E942B
:1025D0002FA502C061E070E0CB010197F1F719C0AF
:1025E00020E030E04FE753E4C501B4010E940DA69E
:1025F000181644F4C301B2010E942FA5CB01019724
:10260000F1F70AC0C501B4010E942FA5162F01C021
:1026100011E0612F6A95F1F78A81813061F48C8530
:102620009D85AE85BF850196A11DB11D8C879D87B7
:10263000AE87BF870BC08C859D85AE85BF85019712
:10264000A109B1098C879D87AE87BF874C855D85C1
:102650006E857F85E881F9810680F781E02DCE01C6
:10266000199581E001C080E0DF91CF911F91FF902B
:10267000EF90DF90CF90BF90AF909F908F907F9022
:102680006F905F904F900895FC01648575858685F5
:1026900097850895FC014487558766877787408B27
:1026A000518B628B738B14AA15AA16AA17AA14A2AF
:1026B00015A216A217A2148A158A168A178A0895D7
:1026C0004F925F926F927F928F929F92AF92BF9242
:1026D000CF92DF92EF92FF920F931F93CF93DF93EE
:1026E000EC01C888D988EA88FB888C859D85AE85F1
:1026F000BF85C81AD90AEA0AFB0A6C897D898E89C6
:102700009F899B01AC010E9411A64B015C016C8D5D
:102710007D8D8E8D9F8D9B01AC010E945AA49B01E3
:10272000AC01C501B4010E94C2A40E942AA5C11433
:10273000D104E104F10499F4623071058105910539
:102740000CF08FC01CA21DA21EA21FA21C8A1D8AF3
:102750001E8A1F8A1CAA1DAA1EAA1FAA10C11C1409
:102760001D041E041F04C4F50CA91DA92EA93FA910
:102770001016110612061306B4F46C157D058E05AD
:102780009F051CF42A8121116CC09B01AC01882794
:102790009927DC01821B930BA40BB50B8CAB9DAB73
:1027A000AEABBFAB5EC033230CF05BC06C157D05D8
:1027B0008E059F050CF055C08A81813009F051C00B
:1027C00030952095109501951F4F2F4F3F4F0CAB23
:1027D0001DAB2EAB3FAB45C0FF200CF042C00CA997
:1027E0001DA92EA93FA91016110612061306ECF416
:1027F0000027112798010C191D092E093F096017A0
:102800007107820793071CF42A81213051F59B013F
:10281000AC0188279927DC01821B930BA40BB50B15
:102820008CAB9DABAEABBFAB1CC03323D4F48824C0
:10283000992454018C189D08AE08BF0868157905C5
:102840008A059B0574F48A8181110BC0309520950F
:10285000109501951F4F2F4F3F4F0CAB1DAB2EAB6B
:102860003FAB8CA89DA8AEA8BFA881149104A10479
:10287000B10489F488AD99ADAAADBBAD8CAF9DAF65
:10288000AEAFBFAF81E01C141D041E041F040CF08A
:1028900080E08A8347C0CCACDDACEEACFFACA701D6
:1028A0009601C701B6010E945AA42B013C01C50143
:1028B000B4010E945DA520E030E040E850E40E94B1
:1028C00011A620E030E040E85FE30E945AA49B019B
:1028D000AC01C301B2010E94C2A49B01AC01C701BB
:1028E000B6010E9459A4A62EB72E082F192FFE015B
:1028F000E05CFF4FC080D180E280F3802C2D3D2D25
:102900004E2D5F2D0E940DA6181624F4CA2CDB2C28
:10291000E02EF12E8C2D9D2DAE2DBF2D8CAF9DAFB9
:10292000AEAFBFAF8CA99DA9AEA9BFA90196A11D4D
:10293000B11D8CAB9DABAEABBFABCCACDDACEEACEC
:10294000FFACC701B6010E942FA56CA37DA38EA387
:102950009FA3A701960160E074E284E799E40E94D6
:10296000C2A46C8B7D8B8E8B9F8B2A81211107C01B
:10297000DC01CB01B0588C8B9D8BAE8BBF8BDF9174
:10298000CF911F910F91FF90EF90DF90CF90BF906C
:10299000AF909F908F907F906F905F904F90089531
:1029A0000F931F93FC010089118922893389041731
:1029B00015072607370729F0408B518B628B738BE5
:1029C0007FDE1F910F9108950F931F93FC010485E3
:1029D000158526853785400F511F621F731FE0DF65
:1029E0001F910F9108950F931F93CF93DF93EC01E5
:1029F00070DD882311F0CE0163DE20E030E0A90114
:102A00006C897D898E899F890E94BEA4811110C026
:102A100081E0088919892A893B894C855D856E8505
:102A20007F85041715072607370719F480E001C0D2
:102A300081E0DF91CF911F910F910895CF92DF92A6
:102A4000EF92FF920F931F93CF93DF93EC016A01F4
:102A50007B0120E030E0A901C701B6010E94BEA4BD
:102A6000882324F4F7FAF094F7F8F094288D398D40
:102A70004A8D5B8DC701B6010E94BEA48823E9F18F
:102A8000C88ED98EEA8EFB8E8E01005C1F4FA70187
:102A9000960160E074E284E799E40E94C2A4F80120
:102AA00060837183828393838CA99DA9AEA9BFA9FA
:102AB000181619061A061B0604F56C897D898E897D
:102AC0009F899B01AC010E9411A66B017C016C8D5A
:102AD0007D8D8E8D9F8D9B01AC010E945AA49B0120
:102AE000AC01C701B6010E94C2A40E942AA56CAB2A
:102AF0007DAB8EAB9FABCE01E3DDDF91CF911F911C
:102B00000F91FF90EF90DF90CF9008954F925F92DA
:102B10006F927F928F929F92AF92BF92CF92DF92ED
:102B2000EF92FF92CF93DF93EC016A017B0120E0EB
:102B300030E0A901C701B6010E94BEA4882309F4B0
:102B400053C020E030E0A901C701B6010E94BEA435
:102B5000882324F4F7FAF094F7F8F0948C8C9D8C89
:102B6000AE8CBF8CA5019401C701B6010E94BEA422
:102B70008823D1F16CA97DA98EA99FA90E945DA58A
:102B80002B013C01A7019601C501B4010E94C2A41A
:102B90009B01AC01C301B2010E9411A60E942AA5AB
:102BA0006CAB7DAB8EAB9FABA701960160E070E094
:102BB00080E090E40E94C2A40E9478A626E53EE050
:102BC0004DE25FE30E9411A620E034E244E759E4BD
:102BD0000E9411A668AF79AF8AAF9BAFCC8EDD8E15
:102BE000EE8EFF8ECE016CDDDF91CF91FF90EF90E6
:102BF000DF90CF90BF90AF909F908F907F906F901D
:102C00005F904F9008958F929F92AF92BF92CF9214
:102C1000EF920F93CF93DF93EC018FEF97E09983BF
:102C200088836B831C861D861E861F86188A198AD8
:102C30001A8A1B8A1C8A1D8A1E8A1F8A0F2E812CC3
:102C4000912CF0E8AF2EFFE3BF2EF02D888E998EE9
:102C5000AA8EBB8E1C8E1D8E1E8E1F8E88A299A2E0
:102C6000AAA2BBA21CA21DA21EA21FA281E090E0EC
:102C70009DA78CA78FEF8FA718A619A61AA61BA62B
:102C80004C832D830E83EF821EA682E090E00E948B
:102C9000A5892C81FC0111822083FE01EC5BFF4F92
:102CA0009183808382E090E00E94A5892D81FC01C0
:102CB00011822083FE01EA5BFF4F9183808382E0D3
:102CC00090E00E94A5892E81FC0111822083FE01E3
:102CD000E85BFF4F9183808382E090E00E94A589AA
:102CE0002F81FC0111822083FE01E65BFF4F91835F
:102CF00080831CAA1DAA1EAA1FAA18AE19AE1AAE5E
:102D00001BAE1CAE1DAE1EAE1FAE3A9780829182E6
:102D1000A282B3821A82188619861A861B86CC2054
:102D200011F0CE011ED940E050E060E87FE3CE0113
:102D3000EDDEDF91CF910F91EF90CF90BF90AF90EC
:102D40009F908F9008956F927F928F929F92AF92F3
:102D5000BF92CF92DF92EF92FF920F931F93CF9388
:102D6000DF93EC01142F052F762E672E242F352F9D
:102D7000462F572F6C897D898E899F890E94BEA41A
:102D8000882309F452C0C88CD98CEA8CFB8C46018C
:102D90005701B7FAB094B7F8B094A5019401612F28
:102DA000702F872D962D0E94BEA488238CF0A7013A
:102DB0009601612F702F872D962D0E940DA6181653
:102DC0002CF0812E902EA72CB62C02C04601570164
:102DD00020E030E0A901C501B4010E94BEA4811128
:102DE00005C01CA21DA21EA21FA21BC0A50194010A
:102DF00060E074E284E799E40E94C2A49F770E9495
:102E00002FA56CA37DA38EA39FA311E020E030E04B
:102E1000A901C501B4010E940DA618160CF010E01E
:102E20001A838C8A9D8AAE8ABF8ADF91CF911F91C7
:102E30000F91FF90EF90DF90CF90BF90AF909F9059
:102E40008F907F906F900895FC0175A764A70895F7
:102E5000CF93DF93EC01CE01C6DD8111FCCFDF9172
:102E6000CF9108958F929F92AF92BF92CF92DF92AF
:102E7000EF92FF92CF93DF93EC01CC88DD88EE8850
:102E8000FF8820E030E0A901C701B6010E94BEA47E
:102E90008823B1F1A7019601C701B6010E9411A6CE
:102EA0004B015C016C8D7D8D8E8D9F8D9B01AC01E6
:102EB0000E945AA49B01AC01C501B4010E94C2A4A6
:102EC0000E942AA54B015C012FEF821A920AA20AE6
:102ED000B20A20E030E0A901C701B6010E940DA6A8
:102EE00018162CF4B501A401CE016EDD09C04427EB
:102EF0005527BA01481959096A097B09CE0164DDD1
:102F0000DF91CF91FF90EF90DF90CF90BF90AF9087
:102F10009F908F900895EF92FF920F931F93CF93FE
:102F2000DF938C01EB014150E42EF12C8FEFE81A76
:102F3000F80AE60EF71E6991F801808191810E94DE
:102F40009DB2F80180819181019691838083CE1595
:102F5000DF0589F7DF91CF911F910F91FF90EF90DF
:102F60000895EF92FF920F931F93CF938C017B01F3
:102F7000C42FF801808191810E9495B2F70181935D
:102F80007F01F80180819181019691838083C150F6
:102F900081F7CF911F910F91FF90EF900895EF92DD
:102FA000FF920F931F93CF93DF93CDB7DEB72A978E
:102FB0000FB6F894DEBF0FBECDBF80E390E39A83D7
:102FC00089830F2EF0E3EF2EF12CF02DFC82EB82A3
:102FD00004E610E01E830D8344E0BE016F5F7F4F67
:102FE000CE01059698DF86E591E398878F83FA8670
:102FF000E9861E830D8344E0BE01695F7F4FCE01E9
:10300000059689DF2A960FB6F894DEBF0FBECDBFB6
:10301000DF91CF911F910F91FF90EF9008950F9343
:103020001F93CF93DF93EEEAF5E06491662381F07E
:10303000EF0108E01AE0D801ED91FC910190F081D8
:10304000E02DC80119952196FE0164916111F3CF1D
:10305000E7EAF5E06491662381F0EF0108E01AE009
:10306000D801ED91FC910190F081E02DC8011995F6
:103070002196FE0164916111F3CFE5EAF5E06491D8
:10308000662381F0EF0108E01AE0D801ED91FC9190
:103090000190F081E02DC80119952196FE016491FF
:1030A0006111F3CF88E09AE00E94E189E2EAF5E05D
:1030B0006491662381F0EF0108E01AE0D801ED91F8
:1030C000FC910190F081E02DC80119952196FE0137
:1030D00064916111F3CF88E09AE00E94E189EFE901
:1030E000F5E06491662381F0EF0108E01AE0D80171
:1030F000ED91FC910190F081E02DC8011995219688
:10310000FE0164916111F3CF88E09AE00E94E189A9
:10311000EDE9F5E06491662381F0EF0108E01AE043
:10312000D801ED91FC910190F081E02DC801199535
:103130002196FE0164916111F3CFE6E9F5E0649117
:10314000662381F0EF0108E01AE0D801ED91FC91CF
:103150000190F081E02DC80119952196FE0164913E
:103160006111F3CFE3E9F5E06491662381F0EF01AB
:1031700008E01AE0D801ED91FC910190F081E02D7A
:10318000C80119952196FE0164916111F3CF88E081
:103190009AE00E94E189DF91CF911F910F910895EC
:1031A000CF93DF9300D000D0CDB7DEB784E690E0B8
:1031B0009A83898344E0BE016D5F7F4FCE01019603
:1031C000D0DE26960FB6F894DEBF0FBECDBFDF91DE
:1031D000CF9108950895FC01918D828D981B892FC0
:1031E00090E00895FC01918D828D981731F0828DC9
:1031F000E80FF11D858D90E008958FEF9FEF089502
:10320000FC01918D828D981759F0828DDF01A80FF6
:10321000B11D5D968C91928D9F5F928F90E0089585
:103220008FEF9FEF0895FC01848DDF01A80FB11D82
:10323000A35EBE4F2C91848D8F5F848FA689B78942
:103240002C93A089B1898C9180648C93938D848D0B
:10325000981306C00288F389E02D80818F7D8083DA
:103260000895CF93DF93EC01888D8823D1F0EA890C
:10327000FB89808185FD05C0A889B9898C9186FD6F
:1032800010C00FB607FCF5CF808185FFF2CF03C0D9
:10329000CE01C9DFECCFA889B9898C9185FFE9CF30
:1032A000F7CFDF91CF9108950F931F93CF93DF93C3
:1032B000EC0181E0888F9B8D8C8D981322C0E8896A
:1032C000F989808185FD22C01CC09C8D19130BC01B
:1032D0000FB607FCFACFE889F989808185FFF5CF21
:1032E000CE01A1DFF2CF8B8DFE01E80FF11DE35E71
:1032F000FE4F00831B8FEA89FB8980818062808377
:103300000DC0062F8B8D8F5F182FDFCFEE89FF89C1
:103310006083E889F98980818064808381E090E01E
:10332000DF91CF911F910F910895CF92DF92EF928D
:10333000FF921F93CF93DF93EC016A017B01122F61
:10334000E889F98982E080834115514E6105710554
:10335000B1F060E079E08DE390E0A70196010E9472
:10336000F1A6DA01C9010197A109B109B695A7959E
:10337000979587959C01211580E13807A8F0E88989
:10338000F989108260E874E88EE190E0A701960167
:103390000E94F1A6DA01C9010197A109B109B69508
:1033A000A795979587959C01EC85FD853083EE85E3
:1033B000FF852083188EEC89FD891083EA89FB89BB
:1033C000808180618083EA89FB8980818860808335
:1033D000EA89FB89808180688083EA89FB89808112
:1033E0008F7D8083DF91CF911F91FF90EF90DF90D1
:1033F000CF9008951F920F920FB60F9211240BB623
:103400000F922F938F939F93AF93BF93EF93FF935D
:10341000E091180AF091190A808182FD13C0E8E05A
:10342000FAE0A689B7892C91818D8F5F928D8917DB
:1034300071F0DF01E18DF0E0E85FF54F258F5996DF
:103440008C9305C0E0911E0AF0911F0A8081FF91C4
:10345000EF91BF91AF919F918F912F910F900BBEE4
:103460000F900FBE0F901F9018951F920F920FB6DE
:103470000F9211240BB60F922F933F934F935F93AC
:103480006F937F938F939F93AF93BF93EF93FF932C
:1034900088E09AE0C8DEFF91EF91BF91AF919F91D4
:1034A0008F917F916F915F914F913F912F910F90ED
:1034B0000BBE0F900FBE0F901F901895E8E0FAE03A
:1034C0001382128288EE93E0A0E0B0E084839583BB
:1034D000A683B78389E198E09183808385EC90E0AF
:1034E0009587848784EC90E09787868780EC90E0CE
:1034F000918B808B81EC90E0938B828B82EC90E0BF
:10350000958B848B86EC90E0978B868B118E128E38
:10351000138E148E08951F920F920FB60F921124DE
:103520000BB60F922F938F939F93AF93BF93EF930D
:10353000FF93E091350CF091360C808182FD13C031
:10354000E5E2FCE0A689B7892C91818D8F5F928D91
:10355000891771F0DF01E18DF0E0EB5DF34F258F0E
:1035600059968C9305C0E0913B0CF0913C0C808106
:10357000FF91EF91BF91AF919F918F912F910F90FC
:103580000BBE0F900FBE0F901F9018951F920F92B9
:103590000FB60F9211240BB60F922F933F934F93B8
:1035A0005F936F937F938F939F93AF93BF93EF93AB
:1035B000FF9385E29CE037DEFF91EF91BF91AF91E1
:1035C0009F918F917F916F915F914F913F912F913B
:1035D0000F900BBE0F900FBE0F901F901895E5E255
:1035E000FCE01382128288EE93E0A0E0B0E08483D6
:1035F0009583A683B78389E198E0918380838DECDE
:1036000090E0958784878CEC90E09787868788EC9C
:1036100090E0918B808B89EC90E0938B828B8AEC8D
:1036200090E0958B848B8EEC90E0978B868B118E3F
:10363000128E138E148E08951F920F920FB60F9252
:1036400011240BB60F922F938F939F93AF93BF9339
:10365000EF93FF93E091520EF091530E808182FD23
:1036600013C0E2E4FEE0A689B7892C91818D8F5FBB
:10367000928D891771F0DF01E18DF0E0EE5BF14F83
:10368000258F59968C9305C0E091580EF091590EF4
:103690008081FF91EF91BF91AF919F918F912F9179
:1036A0000F900BBE0F900FBE0F901F9018951F929A
:1036B0000F920FB60F9211240BB60F922F933F93D8
:1036C0004F935F936F937F938F939F93AF93BF932A
:1036D000EF93FF9382E49EE0A6DDFF91EF91BF910F
:1036E000AF919F918F917F916F915F914F913F919A
:1036F0002F910F900BBE0F900FBE0F901F9018953B
:10370000E2E4FEE01382128288EE93E0A0E0B0E0F3
:1037100084839583A683B78389E198E0918380832E
:1037200085ED90E09587848784ED90E09787868784
:1037300080ED90E0918B808B81ED90E0938B828B7C
:1037400082ED90E0958B848B86ED90E0978B868B55
:10375000118E128E138E148E08951F920F920FB633
:103760000F9211240BB60F922F938F939F93AF93C9
:10377000BF93EF93FF93E0916F10F09170108081F1
:1037800082FD13C0EFE5F0E1A689B7892C91818D08
:103790008F5F928D891771F0DF01E18DF0E0E15AC2
:1037A000FF4E258F59968C9305C0E0917510F091CE
:1037B00076108081FF91EF91BF91AF919F918F9192
:1037C0002F910F900BBE0F900FBE0F901F9018956A
:1037D0001F920F920FB60F9211240BB60F922F93D8
:1037E0003F934F935F936F937F938F939F93AF9389
:1037F000BF93EF93FF938FE590E115DDFF91EF917C
:10380000BF91AF919F918F917F916F915F914F91F8
:103810003F912F910F900BBE0F900FBE0F901F90F6
:103820001895EFE5F0E11382128288EE93E0A0E0B4
:10383000B0E084839583A683B78389E198E0918380
:10384000808385E391E09587848784E391E097877F
:10385000868780E391E0918B808B81E391E0938B6D
:10386000828B82E391E0958B848B86E391E0978B4A
:10387000868B118E128E138E148E089584B7877FD7
:1038800084BFE0E6F0E080818861808310820E943E
:103890004C3C0E949C89FDCF90917C1291111CC0E0
:1038A00091E090937C1294E6EDE7F2E1DF011D9246
:1038B0009A95E9F7E5E2F8E045E358E091E02191D7
:1038C00031912F3FBFEF3B0721F0D901A358BD4EE7
:1038D0009C93E417F50799F7843670F490E0FC01A7
:1038E000E358FD4E2081211109C0FC01E358FD4E33
:1038F00022E0208381E0089580E0089580E008952B
:10390000843638F4E82FF0E0E358FD4E108281E071
:10391000089580E00895843638F4E82FF0E0E35805
:10392000FD4E808190E008958FEF9FEF0895FC0198
:103930002281338184819581281739072CF4828173
:10394000938101969383828308958F929F92AF9281
:10395000BF92EF920F931F93CF93DF93FC01480127
:10396000590163837483C62FD72F20E030E0A991DB
:10397000B991109701F114960D90BC91A02D9C91D6
:10398000491319C0D901AA0FBB1FAE0FBF1F9D96C7
:103990002C93D9015796AA0FBB1FAE0FBF1FEC92F5
:1039A000220F331F220F331FE20FF31F85829682EF
:1039B000A782B08605C02F5F3F4F2A303105B9F688
:1039C000DF91CF911F910F91EF90BF90AF909F909B
:1039D0008F9008954F925F926F927F92AF92BF92B5
:1039E000CF92DF92EF92FF920F931F93CF93DF93CB
:1039F0006C01FC01E759FF4F80819181892B41F4D3
:103A00003296960123583F4F81919191892B71F005
:103A1000E601AD96760185E0E80EF11C86010358BB
:103A20001F4F5601A1E4AA0EB11C04C0E217F30710
:103A300059F7EECFE881EF3F51F1D8018C91811118
:103A400004C08981882321F022C089818823F9F06C
:103A5000F0E0EE0FFF1FD60113968D919C91149705
:103A6000E80FF91F808191810E94018C2B013C019C
:103A7000F70160817181828193810E945BA59B0126
:103A8000AC01C301B2010E94BEA488235CF022965F
:103A9000F4E0EF0EF11C0F5F1F4FCA15DB0551F666
:103AA00080E00BC0D601ED91FC910680F781E02DFE
:103AB00068E070E0C601199581E0DF91CF911F9118
:103AC0000F91FF90EF90DF90CF90BF90AF907F90DD
:103AD0006F905F904F900895FF920F931F93CF9335
:103AE000DF938C01D62FF42E86E090E00E94A5890A
:103AF000DC016D2F70E061507109FB01EE0FFF1FBB
:103B0000EE0FFF1FE00FF11FEF5BFF4F80819181F0
:103B100021E338E011963C932E9315969C938E9357
:103B2000149713961C921E921297660F771FE80146
:103B3000C60FD71F8E0107541F4FF801B183A08312
:103B400083E090E00E94A58926EF39E0FC013183F3
:103B50002083C353DF4F99838883F80140815181CB
:103B600021E030E06F2D0E9482A0DF91CF911F9164
:103B70000F91FF900895CF92DF92EF92FF92CF9333
:103B8000DF93FC01E759FF4F20813181232B61F442
:103B90003296AC0143585F4F21913191232B21F490
:103BA000E417F507C9F732C0FC01E754FF4FEC01F9
:103BB000CF5BDF4F9C0123533F4FA191B1911097F1
:103BC000F9F06FB7F89412964D915C9113976FBF0F
:103BD000052E000C660B770BC880D980EA80FB802D
:103BE0004C155D056E057F0558F0DC01ED91FC91EB
:103BF0000680F781E02D6AE070E0199581E007C04A
:103C00002496E217F307C9F680E001C080E0DF9157
:103C1000CF91FF90EF90DF90CF90089570E06150CA
:103C20007109660F771F860F971FFC01E754FF4F3E
:103C30000190F081E02D309741F08FB7F894228108
:103C400033818FBF822F932F08958FEF9FEF0895B9
:103C5000FC01E754FF4F9C0123533F4FA191B191C9
:103C6000109739F09FB7F89413961C921E921297F2
:103C70009FBFE217F30791F70895FC01E759FF4F43
:103C800083589F4F11921192E817F907D9F70895B9
:103C900008958C519F4F2FEF30E0FC01318320833A
:103CA000089581E090E008958A519F4FFC01808142
:103CB000918108958C5E9E4FFC01808191810895D1
:103CC0008F929F92AF92BF92CF92DF92EF92FF922C
:103CD0000F931F93CF93DF936C015B014C018CEE2C
:103CE000880E911C7601ACEEEA1AAEEFFA0A860154
:103CF00008511F4FF401C081CF3F91F1D0E0CC0FAC
:103D0000DD1FD801ED91FC91EC0FFD1F80819181A9
:103D1000FC0160810E9459A3D801ED91FC91EC0F48
:103D2000FD1FD40112966C91808191810E9462A244
:103D3000D801ED91FC91EC0FFD1FD40113966C910D
:103D4000808191810E9440A2F80180819181C80FF9
:103D5000D91F40E060E070E0888199810E94FEA256
:103D6000F4E08F0E911C8E149F0421F6F601EA51A7
:103D7000FF4F80E190E091838083C6017EDFC60122
:103D800067DFC501DF91CF911F910F91FF90EF90F9
:103D9000DF90CF90BF90AF909F908F9008952BE4CD
:103DA00038E0FC013183208373CF0895CF93DF93F4
:103DB000EC01F5DFCE010E94A889DF91CF91089533
:103DC0008F929F92AF92BF92CF92DF92EF92FF922B
:103DD0000F931F93CF93DF93CDB7DEB7CB54D14072
:103DE0000FB6F894DEBF0FBECDBF7C018A01C62E90
:103DF000D12C560181E0A81AB108CC0CDD1CCC0CEA
:103E0000DD1CCE0CDF1CF601E851FF4FE081EF3FD7
:103E100089F44AE0BE016F5F7E4F8FEF9FEF0E94F3
:103E200038AC4AE0BE016A5F7E4F8FEF9FEF0E9481
:103E300038AC2EC0F0E0EE0FFF1F470198EE890E60
:103E4000911CD4018D919C91E80FF91F0190F08194
:103E5000E02D80814AE0BE016F5F7E4F90E00E94BE
:103E600038ACF601E851FF4FE081F0E0EE0FFF1FA4
:103E7000D4018D919C91E80FF91F0190F081E02D04
:103E800081814AE0BE016A5F7E4F90E00E9438ACBB
:103E9000AA0CBB1CAA0CBB1CAE0CBF1CF501E35149
:103EA000FF4F80814AE0BE01655F7E4F90E00E9437
:103EB00038ACF501E251FF4F80814AE0BE01605FFE
:103EC0007E4F90E00E9438ACF501E151FF4F8081B8
:103ED0004AE0BE016B5E7E4F90E00E9438ACF70175
:103EE000E651FF4F0190F081E02D0190F081E02D2F
:103EF000309749F080814AE0BE01665E7E4F90E0D7
:103F00000E9438AC08C04AE0BE01665E7E4F80E089
:103F100090E00E9438ACF701E651FF4F0190F0812C
:103F2000E02D0280F381E02D309749F080814AE056
:103F3000BE01615E7E4F90E00E9438AC08C04AE04E
:103F4000BE01615E7E4F80E090E00E9438ACF701D8
:103F5000E651FF4F0190F081E02D0480F581E02DC6
:103F6000309749F080814AE0BE016C5D7E4F90E061
:103F70000E9438AC08C04AE0BE016C5D7E4F80E014
:103F800090E00E9438ACF701E651FF4F0190F081BC
:103F9000E02D0680F781E02D309749F080814AE0DE
:103FA000BE01675D7E4F90E00E9438AC08C04AE0D9
:103FB000BE01675D7E4F80E090E00E9438ACF70163
:103FC000E651FF4F0190F081E02D0084F185E02D56
:103FD000309749F080814AE0BE01625D7E4F90E0FB
:103FE0000E9438AC08C04AE0BE01625D7E4F80E0AE
:103FF00090E00E9438ACF701E651FF4F0190F0814C
:10400000E02D0284F385E02D309749F080814AE06D
:10401000BE016D5C7E4F90E00E9438AC08C04AE063
:10402000BE016D5C7E4F80E090E00E9438ACF701ED
:10403000E651FF4F0190F081E02D0484F585E02DDD
:10404000309749F080814AE0BE01685C7E4F90E085
:104050000E9438AC08C04AE0BE01685C7E4F80E038
:1040600090E00E9438ACF701E651FF4F0190F081DB
:10407000E02D0684F785E02D309749F080814AE0F5
:10408000BE01635C7E4F90E00E9438AC08C04AE0FD
:10409000BE01635C7E4F80E090E00E9438ACF70187
:1040A000E651FF4F0190F081E02D0088F189E02D6D
:1040B000309749F080814AE0BE016E5B7E4F90E010
:1040C0000E9438AC08C04AE0BE016E5B7E4F80E0C3
:1040D00090E00E9438ACF701E651FF4F0190F0816B
:1040E000E02D0288F389E02D309749F080814AE085
:1040F000BE01695B7E4F90E00E9438AC08C04AE088
:10410000BE01695B7E4F80E090E00E9438ACF60112
:10411000E851FF4F80818F3F09F03FC0CE01895B9E
:104120009E4F9F938F9305979F938F9305979F9390
:104130008F9305979F938F9305979F938F930597E1
:104140009F938F9305979F938F9305979F938F933B
:1041500005979F938F9305979F938F9305979F93B1
:104160008F9305979F938F9305979F938F930597B1
:104170009F938F9305979F938F938BE092E09F93EC
:104180008F93CE0101969F938F930E945BAC0FB6E5
:10419000F894DEBF0FBECDBF47C0CE01895B9E4FF6
:1041A0009F938F9305979F938F9305979F938F93DB
:1041B00005979F938F9305979F938F9305979F9351
:1041C0008F9305979F938F9305979F938F93059751
:1041D0009F938F9305979F938F9305979F938F93AB
:1041E00005979F938F9305979F938F9305979F9321
:1041F0008F9305979F938F938BE992E09F938F9373
:10420000CE0101969F938F930E945BAC0FB6F894FA
:10421000DEBF0FBECDBF08C081918D93882381F092
:10422000E217F307C9F70CC08981D8018C93882362
:1042300039F0FE01329611969E012F5F3E4FECCF72
:10424000C55BDE4F0FB6F894DEBF0FBECDBFDF916A
:10425000CF911F910F91FF90EF90DF90CF90BF9083
:10426000AF909F908F900895AF92BF92CF92DF92C0
:10427000EF92FF920F931F93CF93DF93EC018A018C
:10428000FC01ED51FF4F80818111C6C3E62EF12C58
:1042900081E0E81AF108F701EE0FFF1FEC0FFD1F98
:1042A000E759FF4F51834083FE01EE0DFF1DE35898
:1042B000FF4F8081882309F494C155230CF0B9C3C2
:1042C000FE01E651FF4FC080D18080E090E0B70151
:1042D000660F771F660F771F6C0F7D1F63517F4F2F
:1042E0009C01D601ED91FD916D01309709F473C1E8
:1042F000DB014C91508154136EC181E08183842F86
:1043000090E0FC01EA50FA4F4491FC01E45CF94F63
:1043100084918823B9F090E0880F991FFC01E4563E
:10432000F94FA591B491FC01EE57F94F8591949105
:104330005FB7F8948D919C911197842B11969C9363
:104340008E935FBFFE01EE0DFF1DE957FF4F808189
:10435000882309F499C0FE01E651FF4F80819181C5
:10436000FC01E20FF31F0190F081E02D808190E0CD
:10437000FC01E055FA4F2491FC01EA50FA4FD49029
:10438000FC01E45CF94FC490CC2009F41AC122234B
:1043900009F467C0822F90E0FC013197E031F1050C
:1043A00008F05FC08827ED54FF4F8F4F0C942FA764
:1043B00060E084E797E10E94A69E53C061E084E735
:1043C00097E10E94A69E4DC060E085E497E10E94BF
:1043D000A69E47C061E085E497E10E94A69E41C089
:1043E00060E086E197E10E94A69E3BC061E086E125
:1043F00097E10E94A69E35C060E087EE96E10E949C
:10440000A69E2FC061E087EE96E10E94A69E29C07D
:1044100062E087EE96E10E94A69E23C060E088EBF2
:1044200096E10E94A69E1DC061E088EB96E10E9485
:10443000A69E17C062E088EB96E10E94A69E11C07E
:1044400060E089E896E10E94A69E0BC061E089E8E1
:1044500096E10E94A69E05C062E089E896E10E946E
:10446000A69EEC2DF0E0EE0FFF1FEE57F94FA59141
:10447000B4912FB7F8948D919C9111978D29119635
:104480009C938E932FBF9DC0FE01E651FF4F80810C
:104490009181FC01E20FF31F0190F081E02D8081FA
:1044A00090E0FC01E055FA4F2491FC01EA50FA4FEC
:1044B000D490FC01E45CF94FC490CC2009F481C095
:1044C000222309F467C0822F90E0FC013197E0318C
:1044D000F10508F05FC08827ED53FF4F8F4F0C9414
:1044E0002FA760E084E797E10E94A69E53C061E099
:1044F00084E797E10E94A69E4DC060E085E497E1C5
:104500000E94A69E47C061E085E497E10E94A69EB6
:1045100041C060E086E197E10E94A69E3BC061E059
:1045200086E197E10E94A69E35C060E087EE96E1A5
:104530000E94A69E2FC061E087EE96E10E94A69E93
:1045400029C062E087EE96E10E94A69E23C060E04B
:1045500088EB96E10E94A69E1DC061E088EB96E183
:104560000E94A69E17C062E088EB96E10E94A69E7C
:1045700011C060E089E896E10E94A69E0BC061E050
:1045800089E896E10E94A69E05C062E089E896E16E
:104590000E94A69EEC2DF0E0EE0FFF1FEE57F94FA4
:1045A000A591B4914FB7F8942D913C9111978D2D11
:1045B00090E0809590958223932311969C938E93FF
:1045C0004FBFFE01EE0DFF1DE358FF4F1082119506
:1045D000019511092EC202968431910509F080CE11
:1045E0001EC2141615060CF08FC1FE01E651FF4FD6
:1045F000C080D18080E090E0B701660F771F660F22
:10460000771F6C0F7D1F63517F4F9C01D601ED9189
:10461000FD916D01309709F471C1DB014C9150811E
:1046200054136CC181E08183842F90E0FC01EA5037
:10463000FA4F4491FC01E45CF94F84918823B9F06E
:1046400090E0880F991FFC01E456F94FA591B491B1
:10465000FC01EE57F94F859194915FB7F8948D91D5
:104660009C911197842B11969C938E935FBFFE01B2
:10467000EE0DFF1DE957FF4F8081882309F49EC08E
:10468000FE01E651FF4F80819181FC01E20FF31F93
:104690000190F081E02D808190E0FC01E055FA4F1F
:1046A0002491FC01EA50FA4FD490FC01E45CF94FEC
:1046B000C490CC2009F41AC1222309F467C0822FC8
:1046C00090E0FC013197E031F10508F05FC08827E8
:1046D000ED52FF4F8F4F0C942FA760E084E797E1D6
:1046E0000E94A69E53C061E084E797E10E94A69EC7
:1046F0004DC060E085E497E10E94A69E47C061E05E
:1047000085E497E10E94A69E41C060E086E197E1C2
:104710000E94A69E3BC061E086E197E10E94A69EB2
:1047200035C060E087EE96E10E94A69E2FC061E052
:1047300087EE96E10E94A69E29C062E087EE96E190
:104740000E94A69E23C060E088EB96E10E94A69E90
:104750001DC061E088EB96E10E94A69E17C062E052
:1047600088EB96E10E94A69E11C060E089E896E180
:104770000E94A69E0BC061E089E896E10E94A69E79
:1047800005C062E089E896E10E94A69EEC2DF0E06B
:10479000EE0FFF1FEE57F94FA591B4914FB7F89464
:1047A0002D913C9111978D2D90E0809590958223CD
:1047B000932311969C938E934FBF98C0FE01E651B0
:1047C000FF4F80819181FC01E20FF31F0190F08186
:1047D000E02D808190E0FC01E055FA4F2491FC012E
:1047E000EA50FA4FD490FC01E45CF94FC490CC201D
:1047F00009F47CC0222309F467C0822F90E0FC01F9
:104800003197E031F10508F05FC08827ED51FF4F87
:104810008F4F0C942FA760E084E797E10E94A69E3B
:1048200053C061E084E797E10E94A69E4DC060E01E
:1048300085E497E10E94A69E47C061E085E497E188
:104840000E94A69E41C060E086E197E10E94A69E7C
:104850003BC061E086E197E10E94A69E35C060E022
:1048600087EE96E10E94A69E2FC061E087EE96E15A
:104870000E94A69E29C062E087EE96E10E94A69E55
:1048800023C060E088EB96E10E94A69E1DC061E017
:1048900088EB96E10E94A69E17C062E088EB96E145
:1048A0000E94A69E11C060E089E896E10E94A69E43
:1048B0000BC061E089E896E10E94A69E05C062E017
:1048C00089E896E10E94A69EEC2DF0E0EE0FFF1F16
:1048D000EE57F94FA591B4912FB7F8948D919C9113
:1048E00011978D2911969C938E932FBFFE01EE0D8B
:1048F000FF1DE358FF4F81E080839BC00296843107
:10490000910509F082CE8BC0452BE1F01195019500
:1049100011098FC0F701EE0FFF1FEE0FFF1FEC0F05
:10492000FD1FEF56FF4F80819181A281B381A801C5
:10493000012E000C660B770B481759076A077B0797
:1049400008F48C01FE01EC51FF4F808191818017AA
:1049500091070CF48C01FE01EF51FF4F60817181D2
:104960006115710521F0C8010E94DEA68B01CE0100
:104970006FD9CE012FD8811148C0C701880F991F68
:10498000880F991F8C0F9D1FFC01E251FF4FD080B3
:104990003196C080F701FB96EE0FFF1FEE0FFF1F51
:1049A000EC0FFD1FE080F12CEE0CFF1C5E01B8EE59
:1049B000AB0EB11CD501ED91FC91EE0DFF1D808178
:1049C0009181FC0160810E9459A3D501ED91FC9178
:1049D000EE0DFF1D6D2D808191810E9462A2D50197
:1049E000ED91FC91EE0DFF1D6C2D808191810E9457
:1049F00040A2F50180819181FC01EE0DFF1D42E096
:104A0000B801808191810E94FEA2CA51DF4F1982B4
:104A1000188280E090E01BC080E090E018C0E88140
:104A2000F9810680F781E02D62E070E0CE011995F2
:104A30000EC0C80199230CF403968C0115950795B7
:104A4000159507950115110509F064CF7BCFDF910E
:104A5000CF911F910F91FF90EF90DF90CF90BF907B
:104A6000AF900895AF92BF92CF92DF92EF92FF92F4
:104A70000F931F93CF93DF93EC01162FF42ED22EBA
:104A80008A81861708F46A838F2D0E944C1C882324
:104A900009F4BCC08D2D0E944C1C882309F4B6C0BB
:104AA00082E090E00E94A589FC01D08221E0218370
:104AB0002D2D30E0F901EA50FA4F4491F901E45C00
:104AC000F94F2491222309F489C030E0220F331FCB
:104AD000F901E456F94FA591B4912E57394FF901D8
:104AE000259134915FB7F8942D913C911197242B27
:104AF00011963C932E935FBF71C0F9012E5F3F4F1B
:104B000040815181452B19F49183808303C026177E
:104B1000370799F7FE01E851FF4FA081B1818D91D0
:104B20009C911197892B09F46BC0FD01329681E0AD
:104B300090E021913191232B09F464C001968A30D1
:104B40009105B9F754962D913C915597232B09F077
:104B50005DC00F2EF4E1AF2EB12CF02D412F50E0AF
:104B60009A0121503109BE01620F731FFB01E35806
:104B7000FF4F00833A960083FA01FA96EE0FFF1F6B
:104B8000EE0FFF1FEC0FFD1F8083C901880F991FD7
:104B9000880F991F8C0F9D1FFC01E351FF4FD0829E
:104BA0003196E0823196C08287E090E00E94A5892C
:104BB0008C016F2D0E9450A3C851DF4FE881F9810D
:104BC000EA0DFB1D11830083E881F981EA0DFB1DCD
:104BD0006F2D808191810E9459A318C0FE01E6517A
:104BE000FF4F0190F081E02D20813181232B09F4CA
:104BF0008BCF9F012E5F3F4FBF016C5E7F4F7DCFFC
:104C000080E090E05C01AA0CBB1CA8CFDF91CF91A3
:104C10001F910F91FF90EF90DF90CF90BF90AF90DA
:104C200008958C519F4F28EE33E0FC01318320839F
:104C300008950F931F93CF93DF93FC01E25CFE4F27
:104C4000A081B181109709F44AC0EC01ED91FC916B
:104C500011970190F081E02D65E0CD011995FE01DD
:104C6000E25CFE4F80819181DC01ED91FC91028438
:104C7000F385E02D19950AE010E0C25CDE4F8881D3
:104C80009981DC01ED91FC910480F581E02D19956D
:104C900018161906C4F488819981DC01ED91FC9104
:104CA0000480F581E02D19951816190664F48881A1
:104CB0009981DC01ED91FC910680F781E02D199539
:104CC000863049F70FC08FE39CE90197F1F700C0E8
:104CD00000000150110999F680E090E005C080E0E5
:104CE00090E002C081E090E0DF91CF911F910F91A1
:104CF00008952CE639E0FC01318320830C94481E92
:104D00000895CF93DF93EC01F4DFCE010E94A889D0
:104D1000DF91CF9108958F929F92AF92BF92CF92E1
:104D2000DF92EF92FF920F931F93CF93DF934B018C
:104D30006A010F2EFAE0AF2EB12CF02DC0E0D0E0CA
:104D40008C01025C1E4FD8018D919C91DC01ED918C
:104D5000FC910480F581E02D19951816190634F59B
:104D60007401EC0EFD1EF80180819181DC01ED9152
:104D7000FC910480F581E02D199518161906B4F4FC
:104D8000F80180819181DC01ED91FC910680F78131
:104D9000E02D19952196F70181937F01CC16DD0650
:104DA00090F08D3001F78C2F9D2F0FC08FE39CE981
:104DB0000197F1F700C0000091E0A91AB10819F6B7
:104DC0008FEF9FEF02C08BEF9FEFDF91CF911F918D
:104DD0000F91FF90EF90DF90CF90BF90AF909F909A
:104DE0008F900895CF92DF92EF92FF920F931F93CF
:104DF000CF93DF93FC01E25CFE4F20813181232BB6
:104E000009F44AC09A01215031092331310508F0D3
:104E100046C07B016C014115510559F18B01E40E2F
:104E2000F51EEF01D8016D918D0188819981DC011A
:104E3000ED91FC910190F081E02D19958881998187
:104E4000DC01ED91FC910284F385E02D1995EFE9E9
:104E5000FFE03197F1F700C0000088819981DC0103
:104E6000ED91FC910680F781E02D1995E016F10691
:104E7000C9F640E450E0B60164507F4FC6014BDFF5
:104E8000181619067CF4F601E450FF4F80818B322E
:104E900061F08DEF9FEF0BC08EEF9FEF08C08DEF9D
:104EA0009FEF05C08CEF9FEF02C080E090E0DF91A4
:104EB000CF911F910F91FF90EF90DF90CF900895C9
:104EC000FB0101900020E9F73197AF01461B570B1A
:104ED00089CF0895DF92EF92FF920F931F93CF93A4
:104EE000DF93EC01D62E8A01FC01ED51FF4F80814A
:104EF0008111B5C0662309F4B5C08A81861708F40C
:104F0000B4C0E62EF12C21E0E21AF108F701EE0F11
:104F1000FF1FEC0FFD1FE759FF4F518340835523BF
:104F20003CF4FE01EE0DFF1DE358FF4F108207C059
:104F3000FE01EE0DFF1DE358FF4F81E08083CE019F
:104F40000E94281ECE010E94EA1C811191C0FE0120
:104F5000EE0DFF1DE957FF4F8081882319F0119551
:104F6000019511090115110509F485C0C801112326
:104F700024F488279927801B910BF701EE0FFF1F60
:104F8000EC0FFD1FE759FF4F2081318182179307F6
:104F9000F4F41016110664F4F701EE0FFF1FEE0F84
:104FA000FF1FEC0FFD1FEF56FF4F8081918110C056
:104FB000F701EE0FFF1FEE0FFF1FEC0FFD1FEF5667
:104FC000FF4F8081918191958195910901C0C80120
:104FD000FE01EC51FF4F008111819C01992324F4C3
:104FE00022273327281B390B021713074CF41816F6
:104FF00019063CF0C80100271127081B190B01C036
:105000008C01FE01EF51FF4F6081718161157105C7
:1050100021F0C8010E94DEA68B017E0138EEE30E6E
:10502000F11C1F930F931F92DF9283E798E09F93E9
:105030008F93FF92EF920E945BACFE01EA51FF4F0B
:1050400011821082B701CE013BDF2DB73EB7285F3A
:105050003F4F0FB6F8943EBF0FBE2DBF15C080E086
:1050600090E012C08DEF9FEF0FC08DEF9FEF0CC04F
:1050700080E090E009C0FE01EC51FF4F80819181FA
:1050800099230CF0BECFB7CFDF91CF911F910F9135
:10509000FF90EF90DF900895AF92BF92CF92DF9292
:1050A000EF92FF920F931F93CF93DF937C015B01ED
:1050B000FC018281882341F1C0E0D0E087010851E2
:1050C0001F4F0F2EF3E7CF2EF8E0DF2EF02D2196A5
:1050D0001F921F92DF93CF93DF92CF921F930F9374
:1050E0000E945BACB801C701EBDEF701828190E062
:1050F0002DB73EB7285F3F4F0FB6F8943EBF0FBEA7
:105100002DBFC817D9071CF3F701EA51FF4F80E103
:1051100090E091838083C7010E943D1EC7010E94D9
:10512000281EC501DF91CF911F910F91FF90EF9045
:10513000DF90CF90BF90AF9008958F929F92AF92E3
:10514000BF92CF92DF92EF92FF920F931F93CF9374
:10515000DF93FC01E25CFE4F0190F081E02DEF2B2C
:10516000C1F149016B015C014115510569F17B01F8
:10517000C40ED51EEC01C25CDE4FD7016D917D01DE
:1051800088819981DC01ED91FC910190F081E02D05
:10519000199588819981DC01ED91FC910284F38558
:1051A000E02D1995EFE9FFE03197F1F700C000001D
:1051B00088819981DC01ED91FC910680F781E02DD9
:1051C0001995CE14DF04C9F6A801B401C501A3DD09
:1051D00002C08EEF9FEFDF91CF911F910F91FF9053
:1051E000EF90DF90CF90BF90AF909F908F900895F9
:1051F0000F931F93FB0101900020E9F73197E61B05
:10520000F70B89019A01AF0198DF1F910F91089563
:10521000EF92FF920F931F93CF93DF931F921F92F2
:10522000CDB7DEB78C018FEF9FEF9A83898378012A
:105230008CEFE80EF11C80E4F70111928A95E9F7F2
:1052400020E430E0A70166EC78E0C801D1DF9923C3
:1052500034F10497FCF0CE0101969F938F938BEC71
:1052600098E09F938F93FF92EF920E9489AC0F90EA
:105270000F900F900F900F900F90181619066CF466
:10528000F801EA51FF4F2081318189819A81822B77
:10529000932B05C08CEF9FEF02C08CEF9FEF0F9018
:1052A0000F90DF91CF911F910F91FF90EF90089594
:1052B0000F931F93CF93DF931F921F92CDB7DEB74B
:1052C0002FEF3FEF3A8329838C0104501F4F20E4D6
:1052D000F80111922A95E9F720E430E0A80161ED88
:1052E00078E086DF9923FCF00497C4F0CE010196A4
:1052F0009F938F9386ED98E09F938F931F930F93C7
:105300000E9489AC0F900F900F900F900F900F900C
:105310001816190634F489819A8105C08CEF9FEF25
:1053200002C08CEF9FEF0F900F90DF91CF911F91F4
:105330000F9108950F931F93CF93DF9300D01F9287
:10534000CDB7DEB78C0104501F4F20E430E0A80138
:1053500069EE78E04DDF992324F10497ECF0CE015B
:1053600003969F938F9302979F938F938EEE98E06F
:105370009F938F931F930F930E9489AC0FB6F8945D
:10538000DEBF0FBECDBF029754F029813A818B81D9
:105390009C81820F931F05C08CEF9FEF02C08CEFA2
:1053A0009FEF0F900F900F900F90DF91CF911F9173
:1053B0000F9108950F931F93CF93DF931F921F9226
:1053C000CDB7DEB72FEF3FEF3A8329838C0104502E
:1053D0001F4F20E4F80111922A95E9F720E430E00C
:1053E000A80165E079E004DF9923F4F00497BCF0AC
:1053F000CE0101969F938F938BE099E09F938F93BB
:105400001F930F930E9489AC0F900F900F900F90F5
:105410000F900F90019731F489819A8105C08CEF2C
:105420009FEF02C08CEF9FEF0F900F90DF91CF9115
:105430001F910F9108958F929F92AF92BF92CF923A
:10544000DF92EF92FF920F931F93CF93DF93CDB72D
:10545000DEB7C857D1090FB6F894DEBF0FBECDBF77
:105460007C01D62E8A01DC01ED91FC910084F1854E
:10547000E02D1995892BE9F47E01B1E5EB0EF11CC5
:105480004AE0B7018D2D90E00E9438ACFF92EF9278
:1054900089E593E09F938F93CE0101969F938F931D
:1054A0000E945BAC0F900F900F900F900F900F9099
:1054B00054C0C7017FDF6E01E1E5CE0ED11C4AE08A
:1054C000B6010E9438ACC70135DF5E01FBE5AF0EC7
:1054D000B11C4AE0B5010E9438ACD701ED91FC91B6
:1054E0000484F585E02DC70119954E01B5E68B0EB4
:1054F000911C4AE0B4010E9438ACD701ED91FC91B7
:105500000684F785E02DC70119957E01BFE6EB0EF5
:10551000F11C4AE0B7010E9438ACFF92EF929F92D3
:105520008F92BF92AF92DF92CF9282E893E09F93E7
:105530008F93CE0101969F938F930E945BAC0FB621
:10554000F894DEBF0FBECDBF08C081918D93882334
:1055500081F02E173F07C9F70CC08981D8018C93C1
:10556000882339F0FE01329611969E012F5A3F4F43
:10557000ECCFC858DF4F0FB6F894DEBF0FBECDBFDB
:10558000DF91CF911F910F91FF90EF90DF90CF901F
:10559000BF90AF909F908F90089528E939E0FC016B
:1055A000318320830C94CF1E0895CF93DF93EC01B9
:1055B000F4DFCE010E94A889DF91CF9108958F92E8
:1055C0009F92AF92BF92CF92DF92EF92FF920F9392
:1055D0001F93CF93DF934C01F62E8A01FC01ED510E
:1055E000FF4F80818111EFC13796A081B18120E00A
:1055F00030E070E061507109660F771F660F771F0A
:10560000680D791D63517F4FC901ED91FD91309770
:1056100009F4C5C0EB01488150815413C0C021E09A
:105620002183242F30E0F901E450F94F4491F9012E
:10563000EE5BF84F24912223B9F030E0220F331FA4
:10564000F901EE55F84FA591B491F901E857F84FDB
:10565000259134915FB7F8942D913C911197242BAB
:1056600011963C932E935FBFF401E651FF4F2081CA
:105670003181F901E80FF91F0190F081E02D80815F
:1056800090E0FC01EA54F94F2491FC01E450F94FF9
:10569000E490FC01EE5BF84FD490DD2009F488C063
:1056A000222309F467C0822F90E0FC013197E0319A
:1056B000F10508F05FC08827ED50FF4F8F4F0C9425
:1056C0002FA760E084E797E10E94A69E53C061E0A7
:1056D00084E797E10E94A69E4DC060E085E497E1D3
:1056E0000E94A69E47C061E085E497E10E94A69EC5
:1056F00041C060E086E197E10E94A69E3BC061E068
:1057000086E197E10E94A69E35C060E087EE96E1B3
:105710000E94A69E2FC061E087EE96E10E94A69EA1
:1057200029C062E087EE96E10E94A69E23C060E059
:1057300088EB96E10E94A69E1DC061E088EB96E191
:105740000E94A69E17C062E088EB96E10E94A69E8A
:1057500011C060E089E896E10E94A69E0BC061E05E
:1057600089E896E10E94A69E05C062E089E896E17C
:105770000E94A69EED2DF0E0EE0FFF1FE857F84FB8
:10578000A591B4912FB7F8948D919C9111978E2982
:1057900011969C938E932FBF21E030E00BC02E5FBB
:1057A0003F4F2431310509F02FCF20E030E002C017
:1057B00021E030E0EF2CF12CD1E0ED1AF108F401FA
:1057C000EE0DFF1DE358FF4F8081882359F111230F
:1057D0000CF058C0F401EE0DFF1DE957FF4F80811A
:1057E000882361F0F701EE0FFF1FEE0FFF1FE80D9A
:1057F000F91DE95EFE4F81E080830AC0F701EE0FDC
:10580000FF1FEE0FFF1FE80DF91DE95EFE4F10822E
:10581000F401EE0DFF1DE358FF4F10821195019525
:10582000110930C01016110634F5F401EE0DFF1DFC
:10583000E957FF4F8081882359F0F701EE0FFF1FD2
:10584000EE0FFF1FE80DF91DE95EFE4F10820BC041
:10585000F701EE0FFF1FEE0FFF1FE80DF91DE95EC8
:10586000FE4F81E08083F401EE0DFF1DE358FF4FF2
:1058700081E0808307C00115110509F4A7C01195C7
:1058800001951109232B59F4D401ED91FC91068067
:10589000F781E02D64E070E0C40119959BC0C80158
:1058A00099230CF403968C0115950795159507958A
:1058B00001151105C1F0F701EE0FFF1FEE0FFF1FDD
:1058C000E80DF91DEF56FF4F80819181A281B381D0
:1058D000A801012E000C660B770B481759076A07C1
:1058E0007B0708F48C01F401EC51FF4F808191811A
:1058F000801791070CF48C01F401EF51FF4F608188
:1059000071816115710521F0C8010E94DEA68B012D
:10591000C4010E94281EC4010E94EA1C81114BC0D0
:10592000C701880F991F880F991F880D991DFC01C9
:10593000E251FF4FC0803196D080F701FB96EE0F09
:10594000FF1FEE0FFF1FE80DF91D2081FC01E95E2E
:10595000FE4FE080F12CE20EF11CEE0CFF1C540116
:10596000B8EEAB0EB11CE501E881F981EE0DFF1D2B
:1059700080819181FC0160810E9459A3E881F981B5
:10598000EE0DFF1D6C2D808191810E9462A2E88145
:10599000F981EE0DFF1D6D2D808191810E9440A245
:1059A00088819981FC01EE0DFF1D42E0B8018081E4
:1059B00091810E94FEA2E401CA51DF4F1982188230
:1059C00080E090E007C080E090E004C0232B09F065
:1059D0008ACF5ACFDF91CF911F910F91FF90EF9017
:1059E000DF90CF90BF90AF909F908F9008958F924F
:1059F0009F92AF92BF92CF92DF92EF92FF920F935E
:105A00001F93CF93DF93CDB7DEB7C055D1400FB60C
:105A1000F894DEBF0FBECDBF7C018A01C62ED12C0B
:105A2000560181E0A81AB108CC0CDD1CCC0CDD1CA1
:105A3000CE0CDF1CF601E851FF4FE081EF3F89F407
:105A40004AE0BE016F5F7E4F8FEF9FEF0E9438AC40
:105A50004AE0BE01655F7E4F8FEF9FEF0E9438AC3A
:105A60002EC0F0E0EE0FFF1F470198EE890E911C4B
:105A7000D4018D919C91E80FF91F0190F081E02DE8
:105A800080814AE0BE016F5F7E4F90E00E9438AC9B
:105A9000F601E851FF4FE081F0E0EE0FFF1FD40167
:105AA0008D919C91E80FF91F0190F081E02D81818B
:105AB0004AE0BE01655F7E4F90E00E9438ACF50180
:105AC000EE0FFF1FEE0FFF1FEE0DFF1DEA5EFE4FF4
:105AD000E081EF3F49F44AE0BE016A5F7E4F8FEFFD
